{
  "contractName": "CrowedSale",
  "abi": [
    {
      "inputs": [
        {
          "internalType": "uint256",
          "name": "_startTime",
          "type": "uint256"
        },
        {
          "internalType": "uint256",
          "name": "_endTime",
          "type": "uint256"
        },
        {
          "internalType": "uint256",
          "name": "_weiTokenPrice",
          "type": "uint256"
        },
        {
          "internalType": "uint256",
          "name": "_weiInvestmentObjective",
          "type": "uint256"
        }
      ],
      "stateMutability": "payable",
      "type": "constructor"
    },
    {
      "anonymous": false,
      "inputs": [
        {
          "indexed": true,
          "internalType": "address",
          "name": "investor",
          "type": "address"
        },
        {
          "indexed": false,
          "internalType": "uint256",
          "name": "value",
          "type": "uint256"
        }
      ],
      "name": "LogInvestment",
      "type": "event"
    },
    {
      "anonymous": false,
      "inputs": [
        {
          "indexed": true,
          "internalType": "address",
          "name": "investor",
          "type": "address"
        },
        {
          "indexed": false,
          "internalType": "uint256",
          "name": "numTokens",
          "type": "uint256"
        }
      ],
      "name": "LogTokenAssignment",
      "type": "event"
    },
    {
      "anonymous": false,
      "inputs": [
        {
          "indexed": false,
          "internalType": "address",
          "name": "investor",
          "type": "address"
        },
        {
          "indexed": false,
          "internalType": "uint256",
          "name": "value",
          "type": "uint256"
        }
      ],
      "name": "Refund",
      "type": "event"
    },
    {
      "inputs": [],
      "name": "endTime",
      "outputs": [
        {
          "internalType": "uint256",
          "name": "",
          "type": "uint256"
        }
      ],
      "stateMutability": "view",
      "type": "function"
    },
    {
      "inputs": [
        {
          "internalType": "address",
          "name": "",
          "type": "address"
        }
      ],
      "name": "investmentAmountOf",
      "outputs": [
        {
          "internalType": "uint256",
          "name": "",
          "type": "uint256"
        }
      ],
      "stateMutability": "view",
      "type": "function"
    },
    {
      "inputs": [],
      "name": "investmentObjective",
      "outputs": [
        {
          "internalType": "uint256",
          "name": "",
          "type": "uint256"
        }
      ],
      "stateMutability": "view",
      "type": "function"
    },
    {
      "inputs": [],
      "name": "investmentReceived",
      "outputs": [
        {
          "internalType": "uint256",
          "name": "",
          "type": "uint256"
        }
      ],
      "stateMutability": "view",
      "type": "function"
    },
    {
      "inputs": [],
      "name": "investmentRefunded",
      "outputs": [
        {
          "internalType": "uint256",
          "name": "",
          "type": "uint256"
        }
      ],
      "stateMutability": "view",
      "type": "function"
    },
    {
      "inputs": [],
      "name": "isFinalized",
      "outputs": [
        {
          "internalType": "bool",
          "name": "",
          "type": "bool"
        }
      ],
      "stateMutability": "view",
      "type": "function"
    },
    {
      "inputs": [],
      "name": "isRefundAllowed",
      "outputs": [
        {
          "internalType": "bool",
          "name": "",
          "type": "bool"
        }
      ],
      "stateMutability": "view",
      "type": "function"
    },
    {
      "inputs": [],
      "name": "owner",
      "outputs": [
        {
          "internalType": "address",
          "name": "",
          "type": "address"
        }
      ],
      "stateMutability": "view",
      "type": "function"
    },
    {
      "inputs": [],
      "name": "pause",
      "outputs": [],
      "stateMutability": "nonpayable",
      "type": "function"
    },
    {
      "inputs": [],
      "name": "paused",
      "outputs": [
        {
          "internalType": "bool",
          "name": "",
          "type": "bool"
        }
      ],
      "stateMutability": "view",
      "type": "function"
    },
    {
      "inputs": [
        {
          "internalType": "address",
          "name": "newOwner",
          "type": "address"
        }
      ],
      "name": "setOwner",
      "outputs": [],
      "stateMutability": "nonpayable",
      "type": "function"
    },
    {
      "inputs": [],
      "name": "simpleToken",
      "outputs": [
        {
          "internalType": "contract SimpleToken",
          "name": "",
          "type": "address"
        }
      ],
      "stateMutability": "view",
      "type": "function"
    },
    {
      "inputs": [],
      "name": "startTime",
      "outputs": [
        {
          "internalType": "uint256",
          "name": "",
          "type": "uint256"
        }
      ],
      "stateMutability": "view",
      "type": "function"
    },
    {
      "inputs": [],
      "name": "tokenPrice",
      "outputs": [
        {
          "internalType": "uint256",
          "name": "",
          "type": "uint256"
        }
      ],
      "stateMutability": "view",
      "type": "function"
    },
    {
      "inputs": [],
      "name": "unPause",
      "outputs": [],
      "stateMutability": "nonpayable",
      "type": "function"
    },
    {
      "inputs": [],
      "name": "invest",
      "outputs": [],
      "stateMutability": "payable",
      "type": "function"
    },
    {
      "inputs": [],
      "name": "finalize",
      "outputs": [],
      "stateMutability": "nonpayable",
      "type": "function"
    },
    {
      "inputs": [],
      "name": "refund",
      "outputs": [],
      "stateMutability": "nonpayable",
      "type": "function"
    }
  ],
  "bytecode": "0x608060405260008060146101000a81548160ff021916908315150217905550604051620027113803806200271183398181016040528101906200004391906200019d565b336000806101000a81548173ffffffffffffffffffffffffffffffffffffffff021916908373ffffffffffffffffffffffffffffffffffffffff160217905550428410156200009157600080fd5b838310156200009f57600080fd5b6000821415620000ae57600080fd5b6000811415620000bd57600080fd5b836001819055508260028190555081600381905550806004819055506000604051620000e99062000178565b620000f591906200021a565b604051809103906000f08015801562000112573d6000803e3d6000fd5b50600860026101000a81548173ffffffffffffffffffffffffffffffffffffffff021916908373ffffffffffffffffffffffffffffffffffffffff1602179055506000600860006101000a81548160ff021916908315150217905550505050506200026f565b6115fe806200111383390190565b600081519050620001978162000255565b92915050565b60008060008060808587031215620001b457600080fd5b6000620001c48782880162000186565b9450506020620001d78782880162000186565b9350506040620001ea8782880162000186565b9250506060620001fd8782880162000186565b91505092959194509250565b620002148162000241565b82525050565b600060208201905062000231600083018462000209565b92915050565b6000819050919050565b60006200024e8262000237565b9050919050565b620002608162000237565b81146200026c57600080fd5b50565b610e94806200027f6000396000f3fe6080604052600436106101095760003560e01c806378e97925116100955780638da5cb5b116100645780638da5cb5b146102ff578063912e704e1461032a578063e8b5e51f14610367578063f7b188a514610371578063ff128ef81461038857610109565b806378e97925146102675780637ff9b596146102925780638456cb59146102bd5780638d4e4083146102d457610109565b8063376ff7f0116100dc578063376ff7f0146101b857806338ef9380146101e35780634bb278f31461020e578063590e1ae3146102255780635c975abb1461023c57610109565b806313af40351461010e5780631c0a5c10146101375780632a64e635146101625780633197cbb61461018d575b600080fd5b34801561011a57600080fd5b5061013560048036038101906101309190610b8e565b6103b3565b005b34801561014357600080fd5b5061014c610488565b6040516101599190610c7c565b60405180910390f35b34801561016e57600080fd5b5061017761048e565b6040516101849190610c61565b60405180910390f35b34801561019957600080fd5b506101a26104b4565b6040516101af9190610c7c565b60405180910390f35b3480156101c457600080fd5b506101cd6104ba565b6040516101da9190610c46565b60405180910390f35b3480156101ef57600080fd5b506101f86104cd565b6040516102059190610c7c565b60405180910390f35b34801561021a57600080fd5b506102236104d3565b005b34801561023157600080fd5b5061023a61062a565b005b34801561024857600080fd5b50610251610775565b60405161025e9190610c46565b60405180910390f35b34801561027357600080fd5b5061027c610788565b6040516102899190610c7c565b60405180910390f35b34801561029e57600080fd5b506102a761078e565b6040516102b49190610c7c565b60405180910390f35b3480156102c957600080fd5b506102d2610794565b005b3480156102e057600080fd5b506102e9610823565b6040516102f69190610c46565b60405180910390f35b34801561030b57600080fd5b50610314610836565b6040516103219190610c02565b60405180910390f35b34801561033657600080fd5b50610351600480360381019061034c9190610b8e565b61085a565b60405161035e9190610c7c565b60405180910390f35b61036f610872565b005b34801561037d57600080fd5b506103866109ac565b005b34801561039457600080fd5b5061039d610a39565b6040516103aa9190610c7c565b60405180910390f35b60008054906101000a900473ffffffffffffffffffffffffffffffffffffffff1673ffffffffffffffffffffffffffffffffffffffff163373ffffffffffffffffffffffffffffffffffffffff161461040b57600080fd5b600073ffffffffffffffffffffffffffffffffffffffff168173ffffffffffffffffffffffffffffffffffffffff16141561044557600080fd5b806000806101000a81548173ffffffffffffffffffffffffffffffffffffffff021916908373ffffffffffffffffffffffffffffffffffffffff16021790555050565b60065481565b600860029054906101000a900473ffffffffffffffffffffffffffffffffffffffff1681565b60025481565b600860019054906101000a900460ff1681565b60075481565b60008054906101000a900473ffffffffffffffffffffffffffffffffffffffff1673ffffffffffffffffffffffffffffffffffffffff163373ffffffffffffffffffffffffffffffffffffffff161461052b57600080fd5b600860009054906101000a900460ff161561054557600080fd5b6000600254421015905060006004546006541015905081156106265780156105ee57600860029054906101000a900473ffffffffffffffffffffffffffffffffffffffff1673ffffffffffffffffffffffffffffffffffffffff166386d1a69f6040518163ffffffff1660e01b8152600401600060405180830381600087803b1580156105d157600080fd5b505af11580156105e5573d6000803e3d6000fd5b5050505061060a565b6001600860016101000a81548160ff0219169083151502179055505b6001600860006101000a81548160ff0219169083151502179055505b5050565b600860019054906101000a900460ff1661064357600080fd5b60003390506000600560008373ffffffffffffffffffffffffffffffffffffffff1673ffffffffffffffffffffffffffffffffffffffff168152602001908152602001600020549050600081141561069a57600080fd5b6106af81600754610a3f90919063ffffffff16565b6007819055506000600560008473ffffffffffffffffffffffffffffffffffffffff1673ffffffffffffffffffffffffffffffffffffffff168152602001908152602001600020819055507fbb28353e4598c3b9199101a66e0989549b659a59a54d2c27fbb183f1932c8e6d828260405161072b929190610c1d565b60405180910390a18173ffffffffffffffffffffffffffffffffffffffff166108fc829081150290604051600060405180830381858888f1935050505061077157600080fd5b5050565b600060149054906101000a900460ff1681565b60015481565b60035481565b60008054906101000a900473ffffffffffffffffffffffffffffffffffffffff1673ffffffffffffffffffffffffffffffffffffffff163373ffffffffffffffffffffffffffffffffffffffff16146107ec57600080fd5b600060149054906101000a900460ff161561080657600080fd5b6001600060146101000a81548160ff021916908315150217905550565b600860009054906101000a900460ff1681565b60008054906101000a900473ffffffffffffffffffffffffffffffffffffffff1681565b60056020528060005260406000206000915090505481565b600060149054906101000a900460ff161561088c57600080fd5b61089534610a8c565b50600033905060003490506108f281600560008573ffffffffffffffffffffffffffffffffffffffff1673ffffffffffffffffffffffffffffffffffffffff16815260200190815260200160002054610a3f90919063ffffffff16565b600560008473ffffffffffffffffffffffffffffffffffffffff1673ffffffffffffffffffffffffffffffffffffffff1681526020019081526020016000208190555061094a81600654610a3f90919063ffffffff16565b60068190555061095a8183610ac1565b8173ffffffffffffffffffffffffffffffffffffffff167fc74590e3281392e897f5c0f45530951cfe0db0e86c76d65af861e80b925871a4826040516109a09190610c7c565b60405180910390a25050565b60008054906101000a900473ffffffffffffffffffffffffffffffffffffffff1673ffffffffffffffffffffffffffffffffffffffff163373ffffffffffffffffffffffffffffffffffffffff1614610a0457600080fd5b600060149054906101000a900460ff16610a1d57600080fd5b60008060146101000a81548160ff021916908315150217905550565b60045481565b60008183610a4d9190610cc0565b905082811015610a86577f4e487b7100000000000000000000000000000000000000000000000000000000600052600160045260246000fd5b92915050565b6000806000831415905060006001544210158015610aac57506002544211155b9050818015610ab85750805b92505050919050565b6000610acc83610b62565b9050600860029054906101000a900473ffffffffffffffffffffffffffffffffffffffff1673ffffffffffffffffffffffffffffffffffffffff166394bf804d82846040518363ffffffff1660e01b8152600401610b2b929190610c97565b600060405180830381600087803b158015610b4557600080fd5b505af1158015610b59573d6000803e3d6000fd5b50505050505050565b600060035482610b729190610d16565b9050919050565b600081359050610b8881610e47565b92915050565b600060208284031215610ba057600080fd5b6000610bae84828501610b79565b91505092915050565b610bc081610d8f565b82525050565b610bcf81610d47565b82525050565b610bde81610d59565b82525050565b610bed81610da1565b82525050565b610bfc81610d85565b82525050565b6000602082019050610c176000830184610bc6565b92915050565b6000604082019050610c326000830185610bb7565b610c3f6020830184610bf3565b9392505050565b6000602082019050610c5b6000830184610bd5565b92915050565b6000602082019050610c766000830184610be4565b92915050565b6000602082019050610c916000830184610bf3565b92915050565b6000604082019050610cac6000830185610bf3565b610cb96020830184610bc6565b9392505050565b6000610ccb82610d85565b9150610cd683610d85565b9250827fffffffffffffffffffffffffffffffffffffffffffffffffffffffffffffffff03821115610d0b57610d0a610de9565b5b828201905092915050565b6000610d2182610d85565b9150610d2c83610d85565b925082610d3c57610d3b610e18565b5b828204905092915050565b6000610d5282610d65565b9050919050565b60008115159050919050565b600073ffffffffffffffffffffffffffffffffffffffff82169050919050565b6000819050919050565b6000610d9a82610dc5565b9050919050565b6000610dac82610db3565b9050919050565b6000610dbe82610d65565b9050919050565b6000610dd082610dd7565b9050919050565b6000610de282610d65565b9050919050565b7f4e487b7100000000000000000000000000000000000000000000000000000000600052601160045260246000fd5b7f4e487b7100000000000000000000000000000000000000000000000000000000600052601260045260246000fd5b610e5081610d47565b8114610e5b57600080fd5b5056fea26469706673582212206c68ac644b622f3b1506188f5b0c1bc4e9e9aa8743aebdcbb4442eda17e66dca64736f6c63430008000033608060405260008060146101000a81548160ff0219169083151502179055506040518060400160405280600881526020017f44656d6f436f696e000000000000000000000000000000000000000000000000815250600190805190602001906200006b929190620001e8565b506040518060400160405280600381526020017f444543000000000000000000000000000000000000000000000000000000000081525060029080519060200190620000b9929190620001e8565b506040518060400160405280600e81526020017f44656d6f20636f696e2076312e300000000000000000000000000000000000008152506003908051906020019062000107929190620001e8565b503480156200011557600080fd5b50604051620015fe380380620015fe83398181016040528101906200013b9190620002af565b336000806101000a81548173ffffffffffffffffffffffffffffffffffffffff021916908373ffffffffffffffffffffffffffffffffffffffff16021790555080600560003373ffffffffffffffffffffffffffffffffffffffff1673ffffffffffffffffffffffffffffffffffffffff16815260200190815260200160002081905550806004819055506001600060146101000a81548160ff0219169083151502179055505062000364565b828054620001f690620002e5565b90600052602060002090601f0160209004810192826200021a576000855562000266565b82601f106200023557805160ff191683800117855562000266565b8280016001018555821562000266579182015b828111156200026557825182559160200191906001019062000248565b5b50905062000275919062000279565b5090565b5b80821115620002945760008160009055506001016200027a565b5090565b600081519050620002a9816200034a565b92915050565b600060208284031215620002c257600080fd5b6000620002d28482850162000298565b91505092915050565b6000819050919050565b60006002820490506001821680620002fe57607f821691505b602082108114156200031557620003146200031b565b5b50919050565b7f4e487b7100000000000000000000000000000000000000000000000000000000600052602260045260246000fd5b6200035581620002db565b81146200036157600080fd5b50565b61128a80620003746000396000f3fe608060405234801561001057600080fd5b50600436106101005760003560e01c80638456cb591161009757806395d89b411161006657806395d89b4114610277578063a9059cbb14610295578063dd62ed3e146102c5578063f7b188a5146102f557610100565b80638456cb591461022957806386d1a69f146102335780638da5cb5b1461023d57806394bf804d1461025b57610100565b806323b872dd116100d357806323b872dd1461018d5780635a3b7e42146101bd5780635c975abb146101db57806370a08231146101f957610100565b806306fdde0314610105578063095ea7b31461012357806313af40351461015357806318160ddd1461016f575b600080fd5b61010d6102ff565b60405161011a9190611027565b60405180910390f35b61013d60048036038101906101389190610f13565b61038d565b60405161014a919061100c565b60405180910390f35b61016d60048036038101906101689190610e5f565b610498565b005b61017761056d565b6040516101849190611049565b60405180910390f35b6101a760048036038101906101a29190610ec4565b610573565b6040516101b4919061100c565b60405180910390f35b6101c5610812565b6040516101d29190611027565b60405180910390f35b6101e36108a0565b6040516101f0919061100c565b60405180910390f35b610213600480360381019061020e9190610e5f565b6108b3565b6040516102209190611049565b60405180910390f35b6102316108cb565b005b61023b61095a565b005b6102456109bc565b6040516102529190610ff1565b60405180910390f35b61027560048036038101906102709190610f4f565b6109e0565b005b61027f610b26565b60405161028c9190611027565b60405180910390f35b6102af60048036038101906102aa9190610f13565b610bb4565b6040516102bc919061100c565b60405180910390f35b6102df60048036038101906102da9190610e88565b610d36565b6040516102ec9190611049565b60405180910390f35b6102fd610d5b565b005b6001805461030c90611185565b80601f016020809104026020016040519081016040528092919081815260200182805461033890611185565b80156103855780601f1061035a57610100808354040283529160200191610385565b820191906000526020600020905b81548152906001019060200180831161036857829003601f168201915b505050505081565b60008060149054906101000a900460ff16156103a857600080fd5b81600660003373ffffffffffffffffffffffffffffffffffffffff1673ffffffffffffffffffffffffffffffffffffffff16815260200190815260200160002060008573ffffffffffffffffffffffffffffffffffffffff1673ffffffffffffffffffffffffffffffffffffffff168152602001908152602001600020819055508273ffffffffffffffffffffffffffffffffffffffff163373ffffffffffffffffffffffffffffffffffffffff167f8c5be1e5ebec7d5bd14f71427d1e84f3dd0314c0f7b2291e5b200ac8c7c3b925846040516104869190611049565b60405180910390a36001905092915050565b60008054906101000a900473ffffffffffffffffffffffffffffffffffffffff1673ffffffffffffffffffffffffffffffffffffffff163373ffffffffffffffffffffffffffffffffffffffff16146104f057600080fd5b600073ffffffffffffffffffffffffffffffffffffffff168173ffffffffffffffffffffffffffffffffffffffff16141561052a57600080fd5b806000806101000a81548173ffffffffffffffffffffffffffffffffffffffff021916908373ffffffffffffffffffffffffffffffffffffffff16021790555050565b60045481565b60008060149054906101000a900460ff161561058e57600080fd5b600560008573ffffffffffffffffffffffffffffffffffffffff1673ffffffffffffffffffffffffffffffffffffffff168152602001908152602001600020548211156105da57600080fd5b600660008573ffffffffffffffffffffffffffffffffffffffff1673ffffffffffffffffffffffffffffffffffffffff16815260200190815260200160002060003373ffffffffffffffffffffffffffffffffffffffff1673ffffffffffffffffffffffffffffffffffffffff1681526020019081526020016000205482111561066357600080fd5b81600560008673ffffffffffffffffffffffffffffffffffffffff1673ffffffffffffffffffffffffffffffffffffffff16815260200190815260200160002060008282546106b291906110d6565b9250508190555081600560008573ffffffffffffffffffffffffffffffffffffffff1673ffffffffffffffffffffffffffffffffffffffff16815260200190815260200160002060008282546107089190611080565b9250508190555081600660008673ffffffffffffffffffffffffffffffffffffffff1673ffffffffffffffffffffffffffffffffffffffff16815260200190815260200160002060003373ffffffffffffffffffffffffffffffffffffffff1673ffffffffffffffffffffffffffffffffffffffff168152602001908152602001600020600082825461079b91906110d6565b925050819055508273ffffffffffffffffffffffffffffffffffffffff168473ffffffffffffffffffffffffffffffffffffffff167fddf252ad1be2c89b69c2b068fc378daa952ba7f163c4a11628f55a4df523b3ef846040516107ff9190611049565b60405180910390a3600190509392505050565b6003805461081f90611185565b80601f016020809104026020016040519081016040528092919081815260200182805461084b90611185565b80156108985780601f1061086d57610100808354040283529160200191610898565b820191906000526020600020905b81548152906001019060200180831161087b57829003601f168201915b505050505081565b600060149054906101000a900460ff1681565b60056020528060005260406000206000915090505481565b60008054906101000a900473ffffffffffffffffffffffffffffffffffffffff1673ffffffffffffffffffffffffffffffffffffffff163373ffffffffffffffffffffffffffffffffffffffff161461092357600080fd5b600060149054906101000a900460ff161561093d57600080fd5b6001600060146101000a81548160ff021916908315150217905550565b60008054906101000a900473ffffffffffffffffffffffffffffffffffffffff1673ffffffffffffffffffffffffffffffffffffffff163373ffffffffffffffffffffffffffffffffffffffff16146109b257600080fd5b6109ba610d5b565b565b60008054906101000a900473ffffffffffffffffffffffffffffffffffffffff1681565b60008054906101000a900473ffffffffffffffffffffffffffffffffffffffff1673ffffffffffffffffffffffffffffffffffffffff163373ffffffffffffffffffffffffffffffffffffffff1614610a3857600080fd5b600073ffffffffffffffffffffffffffffffffffffffff168173ffffffffffffffffffffffffffffffffffffffff161415610a7257600080fd5b610ac482600560008473ffffffffffffffffffffffffffffffffffffffff1673ffffffffffffffffffffffffffffffffffffffff16815260200190815260200160002054610de890919063ffffffff16565b600560008373ffffffffffffffffffffffffffffffffffffffff1673ffffffffffffffffffffffffffffffffffffffff16815260200190815260200160002081905550610b1c82600454610de890919063ffffffff16565b6004819055505050565b60028054610b3390611185565b80601f0160208091040260200160405190810160405280929190818152602001828054610b5f90611185565b8015610bac5780601f10610b8157610100808354040283529160200191610bac565b820191906000526020600020905b815481529060010190602001808311610b8f57829003601f168201915b505050505081565b60008060149054906101000a900460ff1615610bcf57600080fd5b81600560003373ffffffffffffffffffffffffffffffffffffffff1673ffffffffffffffffffffffffffffffffffffffff168152602001908152602001600020541015610c1b57600080fd5b81600560003373ffffffffffffffffffffffffffffffffffffffff1673ffffffffffffffffffffffffffffffffffffffff1681526020019081526020016000206000828254610c6a91906110d6565b9250508190555081600560008573ffffffffffffffffffffffffffffffffffffffff1673ffffffffffffffffffffffffffffffffffffffff1681526020019081526020016000206000828254610cc09190611080565b925050819055508273ffffffffffffffffffffffffffffffffffffffff163373ffffffffffffffffffffffffffffffffffffffff167fddf252ad1be2c89b69c2b068fc378daa952ba7f163c4a11628f55a4df523b3ef84604051610d249190611049565b60405180910390a36001905092915050565b6006602052816000526040600020602052806000526040600020600091509150505481565b60008054906101000a900473ffffffffffffffffffffffffffffffffffffffff1673ffffffffffffffffffffffffffffffffffffffff163373ffffffffffffffffffffffffffffffffffffffff1614610db357600080fd5b600060149054906101000a900460ff16610dcc57600080fd5b60008060146101000a81548160ff021916908315150217905550565b60008183610df69190611080565b905082811015610e2f577f4e487b7100000000000000000000000000000000000000000000000000000000600052600160045260246000fd5b92915050565b600081359050610e4481611226565b92915050565b600081359050610e598161123d565b92915050565b600060208284031215610e7157600080fd5b6000610e7f84828501610e35565b91505092915050565b60008060408385031215610e9b57600080fd5b6000610ea985828601610e35565b9250506020610eba85828601610e35565b9150509250929050565b600080600060608486031215610ed957600080fd5b6000610ee786828701610e35565b9350506020610ef886828701610e35565b9250506040610f0986828701610e4a565b9150509250925092565b60008060408385031215610f2657600080fd5b6000610f3485828601610e35565b9250506020610f4585828601610e4a565b9150509250929050565b60008060408385031215610f6257600080fd5b6000610f7085828601610e4a565b9250506020610f8185828601610e35565b9150509250929050565b610f948161110a565b82525050565b610fa38161111c565b82525050565b6000610fb482611064565b610fbe818561106f565b9350610fce818560208601611152565b610fd781611215565b840191505092915050565b610feb81611148565b82525050565b60006020820190506110066000830184610f8b565b92915050565b60006020820190506110216000830184610f9a565b92915050565b600060208201905081810360008301526110418184610fa9565b905092915050565b600060208201905061105e6000830184610fe2565b92915050565b600081519050919050565b600082825260208201905092915050565b600061108b82611148565b915061109683611148565b9250827fffffffffffffffffffffffffffffffffffffffffffffffffffffffffffffffff038211156110cb576110ca6111b7565b5b828201905092915050565b60006110e182611148565b91506110ec83611148565b9250828210156110ff576110fe6111b7565b5b828203905092915050565b600061111582611128565b9050919050565b60008115159050919050565b600073ffffffffffffffffffffffffffffffffffffffff82169050919050565b6000819050919050565b60005b83811015611170578082015181840152602081019050611155565b8381111561117f576000848401525b50505050565b6000600282049050600182168061119d57607f821691505b602082108114156111b1576111b06111e6565b5b50919050565b7f4e487b7100000000000000000000000000000000000000000000000000000000600052601160045260246000fd5b7f4e487b7100000000000000000000000000000000000000000000000000000000600052602260045260246000fd5b6000601f19601f8301169050919050565b61122f8161110a565b811461123a57600080fd5b50565b61124681611148565b811461125157600080fd5b5056fea26469706673582212207f05c7715640fca8a0f953deeff11dd7b546e95c04d77e679a0f939ed9bb54a364736f6c63430008000033",
  "immutableReferences": {},
  "source": "// SPDX-License-Identifier: MIT\npragma solidity >=0.6.0;\n\nimport \"./SimpleToken.sol\";\nimport \"./Pausable.sol\";\nimport \"./SafeMath.sol\";\n\n// THIS DEMO DOES NOT HAVE SAFE MATH\n\ncontract CrowedSale is Pausable {\n    using SafeMath for uint256;\n\n\n    uint256 public startTime;\n    uint256 public endTime;\n\n    uint256 public tokenPrice;\n    uint256 public investmentObjective;\n    \n    mapping (address => uint256) public investmentAmountOf;\n\n    uint256 public investmentReceived;\n    uint256 public investmentRefunded;\n\n    bool public isFinalized;\n    bool public isRefundAllowed;\n\n    SimpleToken public simpleToken;   \n\n    event LogInvestment(address indexed investor, uint256 value);\n    event LogTokenAssignment(address indexed investor, uint256 numTokens);\n    event Refund(address investor, uint256 value);\n\n    constructor(uint256 _startTime, uint256 _endTime, uint256 _weiTokenPrice, uint256 _weiInvestmentObjective) payable {\n        \n        require(_startTime >= block.timestamp);\n        require(_endTime >= _startTime);\n        \n        require(_weiTokenPrice != 0);\n        require(_weiInvestmentObjective != 0);\n        \n        startTime = _startTime;\n        endTime = _endTime;\n        \n        tokenPrice = _weiTokenPrice;\n        investmentObjective = _weiInvestmentObjective;\n\n        simpleToken = new SimpleToken(0);\n        isFinalized = false;\n    }   \n\n    function invest() public payable whenNotPaused {\n        isValidInvestment(msg.value);\n\n        address investor = msg.sender;\n        uint256 value = msg.value;\n\n        investmentAmountOf[investor] = investmentAmountOf[investor].add(value);\n        investmentReceived = investmentReceived.add(value);\n\n        assignTokens(value, investor);\n\n        emit LogInvestment(investor, value);\n    }\n\n    function finalize() public onlyOwner {\n        if(isFinalized) revert();\n\n        bool timeFinished = block.timestamp >= endTime;\n        bool fundCompleted = investmentReceived >= investmentObjective;\n\n        if(timeFinished) {\n\n            if(fundCompleted) {\n                simpleToken.release();\n            }\n            else {\n                isRefundAllowed = true;\n            }\n\n            isFinalized = true;\n        }\n    }\n\n    function refund() public {\n        if(!isRefundAllowed)\n            revert();\n        \n        address payable investor = payable(msg.sender);\n        uint256 investment = investmentAmountOf[investor];\n\n        if(investment == 0) revert();\n\n        investmentRefunded = investmentRefunded.add(investment);\n\n        investmentAmountOf[investor] = 0;\n\n        emit Refund(investor, investment);\n\n        if(!investor.send(investment)) revert();\n    }\n\n    function isValidInvestment(uint256 _investment) internal view returns (bool) {\n        \n        bool nonZeroInvestment = _investment != 0;\n        bool withinCrowdsalePeriod = block.timestamp >= startTime && block.timestamp <= endTime;\n        \n        return nonZeroInvestment && withinCrowdsalePeriod;\n    }\n\n    function assignTokens(uint256 _value, address _investor) internal {\n\n        uint256 numberOfTokens = calculateTokens(_value);   \n\n        simpleToken.mint(numberOfTokens, _investor);\n    }\n\n    function calculateTokens(uint256 _value) internal view returns (uint256) {\n        return _value / tokenPrice;\n    }\n}",
  "sourcePath": "/home/guilherme/Documents/MyRepos/CryptoDemos/CrowedSaleDemo/contracts/CrowedSale.sol",
  "compiler": {
    "name": "solc",
    "version": "0.8.0+commit.c7dfd78e.Emscripten.clang"
  },
  "schemaVersion": "3.4.3",
  "updatedAt": "2021-10-03T10:19:05.103Z",
  "devdoc": {
    "kind": "dev",
    "methods": {},
    "version": 1
  },
  "userdoc": {
    "kind": "user",
    "methods": {},
    "version": 1
  }
}