{
  "contractName": "Pausable",
  "abi": [
    {
      "inputs": [],
      "name": "owner",
      "outputs": [
        {
          "internalType": "address",
          "name": "",
          "type": "address"
        }
      ],
      "stateMutability": "view",
      "type": "function"
    },
    {
      "inputs": [],
      "name": "paused",
      "outputs": [
        {
          "internalType": "bool",
          "name": "",
          "type": "bool"
        }
      ],
      "stateMutability": "view",
      "type": "function"
    },
    {
      "inputs": [
        {
          "internalType": "address",
          "name": "newOwner",
          "type": "address"
        }
      ],
      "name": "setOwner",
      "outputs": [],
      "stateMutability": "nonpayable",
      "type": "function"
    },
    {
      "inputs": [],
      "name": "pause",
      "outputs": [],
      "stateMutability": "nonpayable",
      "type": "function"
    },
    {
      "inputs": [],
      "name": "unPause",
      "outputs": [],
      "stateMutability": "nonpayable",
      "type": "function"
    }
  ],
  "bytecode": "0x608060405260008060146101000a81548160ff02191690831515021790555034801561002a57600080fd5b50336000806101000a81548173ffffffffffffffffffffffffffffffffffffffff021916908373ffffffffffffffffffffffffffffffffffffffff16021790555061040d8061007a6000396000f3fe608060405234801561001057600080fd5b50600436106100575760003560e01c806313af40351461005c5780635c975abb146100785780638456cb59146100965780638da5cb5b146100a0578063f7b188a5146100be575b600080fd5b61007660048036038101906100719190610305565b6100c8565b005b61008061019d565b60405161008d9190610367565b60405180910390f35b61009e6101b0565b005b6100a861023f565b6040516100b5919061034c565b60405180910390f35b6100c6610263565b005b60008054906101000a900473ffffffffffffffffffffffffffffffffffffffff1673ffffffffffffffffffffffffffffffffffffffff163373ffffffffffffffffffffffffffffffffffffffff161461012057600080fd5b600073ffffffffffffffffffffffffffffffffffffffff168173ffffffffffffffffffffffffffffffffffffffff16141561015a57600080fd5b806000806101000a81548173ffffffffffffffffffffffffffffffffffffffff021916908373ffffffffffffffffffffffffffffffffffffffff16021790555050565b600060149054906101000a900460ff1681565b60008054906101000a900473ffffffffffffffffffffffffffffffffffffffff1673ffffffffffffffffffffffffffffffffffffffff163373ffffffffffffffffffffffffffffffffffffffff161461020857600080fd5b600060149054906101000a900460ff161561022257600080fd5b6001600060146101000a81548160ff021916908315150217905550565b60008054906101000a900473ffffffffffffffffffffffffffffffffffffffff1681565b60008054906101000a900473ffffffffffffffffffffffffffffffffffffffff1673ffffffffffffffffffffffffffffffffffffffff163373ffffffffffffffffffffffffffffffffffffffff16146102bb57600080fd5b600060149054906101000a900460ff166102d457600080fd5b60008060146101000a81548160ff021916908315150217905550565b6000813590506102ff816103c0565b92915050565b60006020828403121561031757600080fd5b6000610325848285016102f0565b91505092915050565b61033781610382565b82525050565b61034681610394565b82525050565b6000602082019050610361600083018461032e565b92915050565b600060208201905061037c600083018461033d565b92915050565b600061038d826103a0565b9050919050565b60008115159050919050565b600073ffffffffffffffffffffffffffffffffffffffff82169050919050565b6103c981610382565b81146103d457600080fd5b5056fea264697066735822122066e5ca6505ccffae59cf9fb20a45ddb7a630d6111135692072373627b03d413f64736f6c63430008000033",
  "immutableReferences": {},
  "source": "// SPDX-License-Identifier: MIT\npragma solidity >=0.6.0;\n\nimport \"./Owner.sol\";\n\ncontract Pausable is Owner {\n    bool public paused = false;\n\n    modifier whenPaused() {\n        require(paused);\n        _;\n    }\n\n    modifier whenNotPaused() {\n        require(!paused);\n        _;\n    }\n\n    function pause() public onlyOwner whenNotPaused {\n        paused = true;\n    }\n\n    function unPause() public onlyOwner whenPaused{\n        paused = false;\n    }\n}",
  "sourcePath": "/home/guilherme/Documents/MyRepos/CryptoDemos/CrowedSaleDemo/contracts/Pausable.sol",
  "compiler": {
    "name": "solc",
    "version": "0.8.0+commit.c7dfd78e.Emscripten.clang"
  },
  "schemaVersion": "3.4.3",
  "updatedAt": "2021-10-03T10:19:05.124Z",
  "devdoc": {
    "kind": "dev",
    "methods": {},
    "version": 1
  },
  "userdoc": {
    "kind": "user",
    "methods": {},
    "version": 1
  }
}