{
  "contractName": "SimpleToken",
  "abi": [
    {
      "inputs": [
        {
          "internalType": "uint256",
          "name": "_initialSupply",
          "type": "uint256"
        }
      ],
      "stateMutability": "nonpayable",
      "type": "constructor"
    },
    {
      "anonymous": false,
      "inputs": [
        {
          "indexed": true,
          "internalType": "address",
          "name": "_owner",
          "type": "address"
        },
        {
          "indexed": true,
          "internalType": "address",
          "name": "_spender",
          "type": "address"
        },
        {
          "indexed": false,
          "internalType": "uint256",
          "name": "_value",
          "type": "uint256"
        }
      ],
      "name": "Approval",
      "type": "event"
    },
    {
      "anonymous": false,
      "inputs": [
        {
          "indexed": true,
          "internalType": "address",
          "name": "_from",
          "type": "address"
        },
        {
          "indexed": true,
          "internalType": "address",
          "name": "_to",
          "type": "address"
        },
        {
          "indexed": false,
          "internalType": "uint256",
          "name": "_value",
          "type": "uint256"
        }
      ],
      "name": "Transfer",
      "type": "event"
    },
    {
      "inputs": [
        {
          "internalType": "address",
          "name": "",
          "type": "address"
        },
        {
          "internalType": "address",
          "name": "",
          "type": "address"
        }
      ],
      "name": "allowance",
      "outputs": [
        {
          "internalType": "uint256",
          "name": "",
          "type": "uint256"
        }
      ],
      "stateMutability": "view",
      "type": "function"
    },
    {
      "inputs": [
        {
          "internalType": "address",
          "name": "",
          "type": "address"
        }
      ],
      "name": "balanceOf",
      "outputs": [
        {
          "internalType": "uint256",
          "name": "",
          "type": "uint256"
        }
      ],
      "stateMutability": "view",
      "type": "function"
    },
    {
      "inputs": [],
      "name": "name",
      "outputs": [
        {
          "internalType": "string",
          "name": "",
          "type": "string"
        }
      ],
      "stateMutability": "view",
      "type": "function"
    },
    {
      "inputs": [],
      "name": "owner",
      "outputs": [
        {
          "internalType": "address",
          "name": "",
          "type": "address"
        }
      ],
      "stateMutability": "view",
      "type": "function"
    },
    {
      "inputs": [],
      "name": "pause",
      "outputs": [],
      "stateMutability": "nonpayable",
      "type": "function"
    },
    {
      "inputs": [],
      "name": "paused",
      "outputs": [
        {
          "internalType": "bool",
          "name": "",
          "type": "bool"
        }
      ],
      "stateMutability": "view",
      "type": "function"
    },
    {
      "inputs": [
        {
          "internalType": "address",
          "name": "newOwner",
          "type": "address"
        }
      ],
      "name": "setOwner",
      "outputs": [],
      "stateMutability": "nonpayable",
      "type": "function"
    },
    {
      "inputs": [],
      "name": "standard",
      "outputs": [
        {
          "internalType": "string",
          "name": "",
          "type": "string"
        }
      ],
      "stateMutability": "view",
      "type": "function"
    },
    {
      "inputs": [],
      "name": "symbol",
      "outputs": [
        {
          "internalType": "string",
          "name": "",
          "type": "string"
        }
      ],
      "stateMutability": "view",
      "type": "function"
    },
    {
      "inputs": [],
      "name": "totalSupply",
      "outputs": [
        {
          "internalType": "uint256",
          "name": "",
          "type": "uint256"
        }
      ],
      "stateMutability": "view",
      "type": "function"
    },
    {
      "inputs": [],
      "name": "unPause",
      "outputs": [],
      "stateMutability": "nonpayable",
      "type": "function"
    },
    {
      "inputs": [
        {
          "internalType": "address",
          "name": "_to",
          "type": "address"
        },
        {
          "internalType": "uint256",
          "name": "_value",
          "type": "uint256"
        }
      ],
      "name": "transfer",
      "outputs": [
        {
          "internalType": "bool",
          "name": "success",
          "type": "bool"
        }
      ],
      "stateMutability": "nonpayable",
      "type": "function"
    },
    {
      "inputs": [
        {
          "internalType": "address",
          "name": "_spender",
          "type": "address"
        },
        {
          "internalType": "uint256",
          "name": "_value",
          "type": "uint256"
        }
      ],
      "name": "approve",
      "outputs": [
        {
          "internalType": "bool",
          "name": "success",
          "type": "bool"
        }
      ],
      "stateMutability": "nonpayable",
      "type": "function"
    },
    {
      "inputs": [
        {
          "internalType": "address",
          "name": "_from",
          "type": "address"
        },
        {
          "internalType": "address",
          "name": "_to",
          "type": "address"
        },
        {
          "internalType": "uint256",
          "name": "_value",
          "type": "uint256"
        }
      ],
      "name": "transferFrom",
      "outputs": [
        {
          "internalType": "bool",
          "name": "success",
          "type": "bool"
        }
      ],
      "stateMutability": "nonpayable",
      "type": "function"
    },
    {
      "inputs": [
        {
          "internalType": "uint256",
          "name": "value",
          "type": "uint256"
        },
        {
          "internalType": "address",
          "name": "receiver",
          "type": "address"
        }
      ],
      "name": "mint",
      "outputs": [],
      "stateMutability": "nonpayable",
      "type": "function"
    },
    {
      "inputs": [],
      "name": "release",
      "outputs": [],
      "stateMutability": "nonpayable",
      "type": "function"
    }
  ],
  "bytecode": "0x608060405260008060146101000a81548160ff0219169083151502179055506040518060400160405280600881526020017f44656d6f436f696e000000000000000000000000000000000000000000000000815250600190805190602001906200006b929190620001e8565b506040518060400160405280600381526020017f444543000000000000000000000000000000000000000000000000000000000081525060029080519060200190620000b9929190620001e8565b506040518060400160405280600e81526020017f44656d6f20636f696e2076312e300000000000000000000000000000000000008152506003908051906020019062000107929190620001e8565b503480156200011557600080fd5b50604051620015fe380380620015fe83398181016040528101906200013b9190620002af565b336000806101000a81548173ffffffffffffffffffffffffffffffffffffffff021916908373ffffffffffffffffffffffffffffffffffffffff16021790555080600560003373ffffffffffffffffffffffffffffffffffffffff1673ffffffffffffffffffffffffffffffffffffffff16815260200190815260200160002081905550806004819055506001600060146101000a81548160ff0219169083151502179055505062000364565b828054620001f690620002e5565b90600052602060002090601f0160209004810192826200021a576000855562000266565b82601f106200023557805160ff191683800117855562000266565b8280016001018555821562000266579182015b828111156200026557825182559160200191906001019062000248565b5b50905062000275919062000279565b5090565b5b80821115620002945760008160009055506001016200027a565b5090565b600081519050620002a9816200034a565b92915050565b600060208284031215620002c257600080fd5b6000620002d28482850162000298565b91505092915050565b6000819050919050565b60006002820490506001821680620002fe57607f821691505b602082108114156200031557620003146200031b565b5b50919050565b7f4e487b7100000000000000000000000000000000000000000000000000000000600052602260045260246000fd5b6200035581620002db565b81146200036157600080fd5b50565b61128a80620003746000396000f3fe608060405234801561001057600080fd5b50600436106101005760003560e01c80638456cb591161009757806395d89b411161006657806395d89b4114610277578063a9059cbb14610295578063dd62ed3e146102c5578063f7b188a5146102f557610100565b80638456cb591461022957806386d1a69f146102335780638da5cb5b1461023d57806394bf804d1461025b57610100565b806323b872dd116100d357806323b872dd1461018d5780635a3b7e42146101bd5780635c975abb146101db57806370a08231146101f957610100565b806306fdde0314610105578063095ea7b31461012357806313af40351461015357806318160ddd1461016f575b600080fd5b61010d6102ff565b60405161011a9190611027565b60405180910390f35b61013d60048036038101906101389190610f13565b61038d565b60405161014a919061100c565b60405180910390f35b61016d60048036038101906101689190610e5f565b610498565b005b61017761056d565b6040516101849190611049565b60405180910390f35b6101a760048036038101906101a29190610ec4565b610573565b6040516101b4919061100c565b60405180910390f35b6101c5610812565b6040516101d29190611027565b60405180910390f35b6101e36108a0565b6040516101f0919061100c565b60405180910390f35b610213600480360381019061020e9190610e5f565b6108b3565b6040516102209190611049565b60405180910390f35b6102316108cb565b005b61023b61095a565b005b6102456109bc565b6040516102529190610ff1565b60405180910390f35b61027560048036038101906102709190610f4f565b6109e0565b005b61027f610b26565b60405161028c9190611027565b60405180910390f35b6102af60048036038101906102aa9190610f13565b610bb4565b6040516102bc919061100c565b60405180910390f35b6102df60048036038101906102da9190610e88565b610d36565b6040516102ec9190611049565b60405180910390f35b6102fd610d5b565b005b6001805461030c90611185565b80601f016020809104026020016040519081016040528092919081815260200182805461033890611185565b80156103855780601f1061035a57610100808354040283529160200191610385565b820191906000526020600020905b81548152906001019060200180831161036857829003601f168201915b505050505081565b60008060149054906101000a900460ff16156103a857600080fd5b81600660003373ffffffffffffffffffffffffffffffffffffffff1673ffffffffffffffffffffffffffffffffffffffff16815260200190815260200160002060008573ffffffffffffffffffffffffffffffffffffffff1673ffffffffffffffffffffffffffffffffffffffff168152602001908152602001600020819055508273ffffffffffffffffffffffffffffffffffffffff163373ffffffffffffffffffffffffffffffffffffffff167f8c5be1e5ebec7d5bd14f71427d1e84f3dd0314c0f7b2291e5b200ac8c7c3b925846040516104869190611049565b60405180910390a36001905092915050565b60008054906101000a900473ffffffffffffffffffffffffffffffffffffffff1673ffffffffffffffffffffffffffffffffffffffff163373ffffffffffffffffffffffffffffffffffffffff16146104f057600080fd5b600073ffffffffffffffffffffffffffffffffffffffff168173ffffffffffffffffffffffffffffffffffffffff16141561052a57600080fd5b806000806101000a81548173ffffffffffffffffffffffffffffffffffffffff021916908373ffffffffffffffffffffffffffffffffffffffff16021790555050565b60045481565b60008060149054906101000a900460ff161561058e57600080fd5b600560008573ffffffffffffffffffffffffffffffffffffffff1673ffffffffffffffffffffffffffffffffffffffff168152602001908152602001600020548211156105da57600080fd5b600660008573ffffffffffffffffffffffffffffffffffffffff1673ffffffffffffffffffffffffffffffffffffffff16815260200190815260200160002060003373ffffffffffffffffffffffffffffffffffffffff1673ffffffffffffffffffffffffffffffffffffffff1681526020019081526020016000205482111561066357600080fd5b81600560008673ffffffffffffffffffffffffffffffffffffffff1673ffffffffffffffffffffffffffffffffffffffff16815260200190815260200160002060008282546106b291906110d6565b9250508190555081600560008573ffffffffffffffffffffffffffffffffffffffff1673ffffffffffffffffffffffffffffffffffffffff16815260200190815260200160002060008282546107089190611080565b9250508190555081600660008673ffffffffffffffffffffffffffffffffffffffff1673ffffffffffffffffffffffffffffffffffffffff16815260200190815260200160002060003373ffffffffffffffffffffffffffffffffffffffff1673ffffffffffffffffffffffffffffffffffffffff168152602001908152602001600020600082825461079b91906110d6565b925050819055508273ffffffffffffffffffffffffffffffffffffffff168473ffffffffffffffffffffffffffffffffffffffff167fddf252ad1be2c89b69c2b068fc378daa952ba7f163c4a11628f55a4df523b3ef846040516107ff9190611049565b60405180910390a3600190509392505050565b6003805461081f90611185565b80601f016020809104026020016040519081016040528092919081815260200182805461084b90611185565b80156108985780601f1061086d57610100808354040283529160200191610898565b820191906000526020600020905b81548152906001019060200180831161087b57829003601f168201915b505050505081565b600060149054906101000a900460ff1681565b60056020528060005260406000206000915090505481565b60008054906101000a900473ffffffffffffffffffffffffffffffffffffffff1673ffffffffffffffffffffffffffffffffffffffff163373ffffffffffffffffffffffffffffffffffffffff161461092357600080fd5b600060149054906101000a900460ff161561093d57600080fd5b6001600060146101000a81548160ff021916908315150217905550565b60008054906101000a900473ffffffffffffffffffffffffffffffffffffffff1673ffffffffffffffffffffffffffffffffffffffff163373ffffffffffffffffffffffffffffffffffffffff16146109b257600080fd5b6109ba610d5b565b565b60008054906101000a900473ffffffffffffffffffffffffffffffffffffffff1681565b60008054906101000a900473ffffffffffffffffffffffffffffffffffffffff1673ffffffffffffffffffffffffffffffffffffffff163373ffffffffffffffffffffffffffffffffffffffff1614610a3857600080fd5b600073ffffffffffffffffffffffffffffffffffffffff168173ffffffffffffffffffffffffffffffffffffffff161415610a7257600080fd5b610ac482600560008473ffffffffffffffffffffffffffffffffffffffff1673ffffffffffffffffffffffffffffffffffffffff16815260200190815260200160002054610de890919063ffffffff16565b600560008373ffffffffffffffffffffffffffffffffffffffff1673ffffffffffffffffffffffffffffffffffffffff16815260200190815260200160002081905550610b1c82600454610de890919063ffffffff16565b6004819055505050565b60028054610b3390611185565b80601f0160208091040260200160405190810160405280929190818152602001828054610b5f90611185565b8015610bac5780601f10610b8157610100808354040283529160200191610bac565b820191906000526020600020905b815481529060010190602001808311610b8f57829003601f168201915b505050505081565b60008060149054906101000a900460ff1615610bcf57600080fd5b81600560003373ffffffffffffffffffffffffffffffffffffffff1673ffffffffffffffffffffffffffffffffffffffff168152602001908152602001600020541015610c1b57600080fd5b81600560003373ffffffffffffffffffffffffffffffffffffffff1673ffffffffffffffffffffffffffffffffffffffff1681526020019081526020016000206000828254610c6a91906110d6565b9250508190555081600560008573ffffffffffffffffffffffffffffffffffffffff1673ffffffffffffffffffffffffffffffffffffffff1681526020019081526020016000206000828254610cc09190611080565b925050819055508273ffffffffffffffffffffffffffffffffffffffff163373ffffffffffffffffffffffffffffffffffffffff167fddf252ad1be2c89b69c2b068fc378daa952ba7f163c4a11628f55a4df523b3ef84604051610d249190611049565b60405180910390a36001905092915050565b6006602052816000526040600020602052806000526040600020600091509150505481565b60008054906101000a900473ffffffffffffffffffffffffffffffffffffffff1673ffffffffffffffffffffffffffffffffffffffff163373ffffffffffffffffffffffffffffffffffffffff1614610db357600080fd5b600060149054906101000a900460ff16610dcc57600080fd5b60008060146101000a81548160ff021916908315150217905550565b60008183610df69190611080565b905082811015610e2f577f4e487b7100000000000000000000000000000000000000000000000000000000600052600160045260246000fd5b92915050565b600081359050610e4481611226565b92915050565b600081359050610e598161123d565b92915050565b600060208284031215610e7157600080fd5b6000610e7f84828501610e35565b91505092915050565b60008060408385031215610e9b57600080fd5b6000610ea985828601610e35565b9250506020610eba85828601610e35565b9150509250929050565b600080600060608486031215610ed957600080fd5b6000610ee786828701610e35565b9350506020610ef886828701610e35565b9250506040610f0986828701610e4a565b9150509250925092565b60008060408385031215610f2657600080fd5b6000610f3485828601610e35565b9250506020610f4585828601610e4a565b9150509250929050565b60008060408385031215610f6257600080fd5b6000610f7085828601610e4a565b9250506020610f8185828601610e35565b9150509250929050565b610f948161110a565b82525050565b610fa38161111c565b82525050565b6000610fb482611064565b610fbe818561106f565b9350610fce818560208601611152565b610fd781611215565b840191505092915050565b610feb81611148565b82525050565b60006020820190506110066000830184610f8b565b92915050565b60006020820190506110216000830184610f9a565b92915050565b600060208201905081810360008301526110418184610fa9565b905092915050565b600060208201905061105e6000830184610fe2565b92915050565b600081519050919050565b600082825260208201905092915050565b600061108b82611148565b915061109683611148565b9250827fffffffffffffffffffffffffffffffffffffffffffffffffffffffffffffffff038211156110cb576110ca6111b7565b5b828201905092915050565b60006110e182611148565b91506110ec83611148565b9250828210156110ff576110fe6111b7565b5b828203905092915050565b600061111582611128565b9050919050565b60008115159050919050565b600073ffffffffffffffffffffffffffffffffffffffff82169050919050565b6000819050919050565b60005b83811015611170578082015181840152602081019050611155565b8381111561117f576000848401525b50505050565b6000600282049050600182168061119d57607f821691505b602082108114156111b1576111b06111e6565b5b50919050565b7f4e487b7100000000000000000000000000000000000000000000000000000000600052601160045260246000fd5b7f4e487b7100000000000000000000000000000000000000000000000000000000600052602260045260246000fd5b6000601f19601f8301169050919050565b61122f8161110a565b811461123a57600080fd5b50565b61124681611148565b811461125157600080fd5b5056fea26469706673582212207f05c7715640fca8a0f953deeff11dd7b546e95c04d77e679a0f939ed9bb54a364736f6c63430008000033",
  "immutableReferences": {},
  "source": "// SPDX-License-Identifier: MIT\npragma solidity >=0.6.0;\n\nimport \"./Pausable.sol\";\nimport \"./SafeMath.sol\";\n\ncontract SimpleToken is Pausable {\n    using SafeMath for uint256;\n\n    string public name = \"DemoCoin\";\n    string public symbol = \"DEC\";\n    string public standard = \"Demo coin v1.0\";\n    \n    uint256 public totalSupply;\n\n    event Transfer(\n        address indexed _from,\n        address indexed _to,\n        uint256 _value\n    );\n\n    event Approval(\n        address indexed _owner,\n        address indexed _spender,\n        uint256 _value\n    );\n\n    mapping(address => uint256) public balanceOf;\n    mapping(address => mapping(address => uint256)) public allowance;\n\n    constructor(uint256 _initialSupply){\n        balanceOf[msg.sender] = _initialSupply;\n        totalSupply = _initialSupply;\n        paused = true;\n    }\n\n    function transfer(address _to, uint256 _value) public whenNotPaused returns (bool success) {\n        require(balanceOf[msg.sender] >= _value);\n\n        balanceOf[msg.sender] -= _value;\n        balanceOf[_to] += _value;\n\n        emit Transfer(msg.sender, _to, _value);\n\n        return true;\n    }\n\n    function approve(address _spender, uint256 _value) public whenNotPaused returns (bool success) {\n        allowance[msg.sender][_spender] = _value;\n\n        emit Approval(msg.sender, _spender, _value);\n\n        return true;\n    }\n\n    function transferFrom(address _from, address _to, uint256 _value) public whenNotPaused returns (bool success) {\n        require(_value <= balanceOf[_from]);\n        require(_value <= allowance[_from][msg.sender]);\n\n        balanceOf[_from] -= _value;\n        balanceOf[_to] += _value;\n\n        allowance[_from][msg.sender] -= _value;\n\n        emit Transfer(_from, _to, _value);\n\n        return true;\n    }\n\n    function mint(uint256 value, address receiver) public onlyOwner {\n        require(receiver != address(0));\n\n        balanceOf[receiver] = balanceOf[receiver].add(value);\n        totalSupply = totalSupply.add(value);\n    }\n\n    function release() public onlyOwner {\n        unPause();\n    }\n}",
  "sourcePath": "/home/guilherme/Documents/MyRepos/CryptoDemos/CrowedSaleDemo/contracts/SimpleToken.sol",
  "compiler": {
    "name": "solc",
    "version": "0.8.0+commit.c7dfd78e.Emscripten.clang"
  },
  "schemaVersion": "3.4.3",
  "updatedAt": "2021-10-03T10:19:05.137Z",
  "devdoc": {
    "kind": "dev",
    "methods": {},
    "version": 1
  },
  "userdoc": {
    "kind": "user",
    "methods": {},
    "version": 1
  }
}